{
  "_format": "hh-sol-artifact-1",
  "contractName": "Governance",
  "sourceName": "contracts/Governance.sol",
  "abi": [
    {
      "inputs": [],
      "stateMutability": "nonpayable",
      "type": "constructor"
    },
    {
      "anonymous": false,
      "inputs": [
        {
          "indexed": true,
          "internalType": "uint256",
          "name": "proposalId",
          "type": "uint256"
        },
        {
          "indexed": false,
          "internalType": "string",
          "name": "title",
          "type": "string"
        },
        {
          "indexed": false,
          "internalType": "address",
          "name": "proposer",
          "type": "address"
        },
        {
          "indexed": false,
          "internalType": "uint256",
          "name": "endDate",
          "type": "uint256"
        }
      ],
      "name": "ProposalCreated",
      "type": "event"
    },
    {
      "anonymous": false,
      "inputs": [
        {
          "indexed": true,
          "internalType": "uint256",
          "name": "proposalId",
          "type": "uint256"
        },
        {
          "indexed": false,
          "internalType": "bool",
          "name": "passed",
          "type": "bool"
        }
      ],
      "name": "ProposalExecuted",
      "type": "event"
    },
    {
      "anonymous": false,
      "inputs": [
        {
          "indexed": true,
          "internalType": "uint256",
          "name": "proposalId",
          "type": "uint256"
        },
        {
          "indexed": false,
          "internalType": "address",
          "name": "voter",
          "type": "address"
        },
        {
          "indexed": false,
          "internalType": "bool",
          "name": "support",
          "type": "bool"
        },
        {
          "indexed": false,
          "internalType": "uint256",
          "name": "votesFor",
          "type": "uint256"
        },
        {
          "indexed": false,
          "internalType": "uint256",
          "name": "votesAgainst",
          "type": "uint256"
        }
      ],
      "name": "VoteCast",
      "type": "event"
    },
    {
      "inputs": [],
      "name": "MIN_VOTES_TO_PASS",
      "outputs": [
        {
          "internalType": "uint256",
          "name": "",
          "type": "uint256"
        }
      ],
      "stateMutability": "view",
      "type": "function"
    },
    {
      "inputs": [],
      "name": "VOTING_PERIOD",
      "outputs": [
        {
          "internalType": "uint256",
          "name": "",
          "type": "uint256"
        }
      ],
      "stateMutability": "view",
      "type": "function"
    },
    {
      "inputs": [
        {
          "internalType": "string",
          "name": "title",
          "type": "string"
        },
        {
          "internalType": "string",
          "name": "description",
          "type": "string"
        }
      ],
      "name": "createProposal",
      "outputs": [
        {
          "internalType": "uint256",
          "name": "",
          "type": "uint256"
        }
      ],
      "stateMutability": "nonpayable",
      "type": "function"
    },
    {
      "inputs": [
        {
          "internalType": "uint256",
          "name": "proposalId",
          "type": "uint256"
        }
      ],
      "name": "getProposal",
      "outputs": [
        {
          "internalType": "uint256",
          "name": "id",
          "type": "uint256"
        },
        {
          "internalType": "string",
          "name": "title",
          "type": "string"
        },
        {
          "internalType": "string",
          "name": "description",
          "type": "string"
        },
        {
          "internalType": "address",
          "name": "proposer",
          "type": "address"
        },
        {
          "internalType": "uint256",
          "name": "endDate",
          "type": "uint256"
        },
        {
          "internalType": "uint256",
          "name": "votesFor",
          "type": "uint256"
        },
        {
          "internalType": "uint256",
          "name": "votesAgainst",
          "type": "uint256"
        },
        {
          "internalType": "uint256",
          "name": "totalVoters",
          "type": "uint256"
        },
        {
          "internalType": "bool",
          "name": "isExecuted",
          "type": "bool"
        }
      ],
      "stateMutability": "view",
      "type": "function"
    },
    {
      "inputs": [
        {
          "internalType": "uint256",
          "name": "proposalId",
          "type": "uint256"
        }
      ],
      "name": "getProposalStatus",
      "outputs": [
        {
          "internalType": "string",
          "name": "",
          "type": "string"
        }
      ],
      "stateMutability": "view",
      "type": "function"
    },
    {
      "inputs": [],
      "name": "getTotalProposals",
      "outputs": [
        {
          "internalType": "uint256",
          "name": "",
          "type": "uint256"
        }
      ],
      "stateMutability": "view",
      "type": "function"
    },
    {
      "inputs": [
        {
          "internalType": "uint256",
          "name": "proposalId",
          "type": "uint256"
        },
        {
          "internalType": "address",
          "name": "voter",
          "type": "address"
        }
      ],
      "name": "hasVoted",
      "outputs": [
        {
          "internalType": "bool",
          "name": "",
          "type": "bool"
        }
      ],
      "stateMutability": "view",
      "type": "function"
    },
    {
      "inputs": [],
      "name": "proposalCount",
      "outputs": [
        {
          "internalType": "uint256",
          "name": "",
          "type": "uint256"
        }
      ],
      "stateMutability": "view",
      "type": "function"
    },
    {
      "inputs": [
        {
          "internalType": "uint256",
          "name": "",
          "type": "uint256"
        }
      ],
      "name": "proposals",
      "outputs": [
        {
          "internalType": "uint256",
          "name": "id",
          "type": "uint256"
        },
        {
          "internalType": "string",
          "name": "title",
          "type": "string"
        },
        {
          "internalType": "string",
          "name": "description",
          "type": "string"
        },
        {
          "internalType": "address",
          "name": "proposer",
          "type": "address"
        },
        {
          "internalType": "uint256",
          "name": "endDate",
          "type": "uint256"
        },
        {
          "internalType": "uint256",
          "name": "votesFor",
          "type": "uint256"
        },
        {
          "internalType": "uint256",
          "name": "votesAgainst",
          "type": "uint256"
        },
        {
          "internalType": "uint256",
          "name": "totalVoters",
          "type": "uint256"
        },
        {
          "internalType": "bool",
          "name": "isExecuted",
          "type": "bool"
        }
      ],
      "stateMutability": "view",
      "type": "function"
    },
    {
      "inputs": [
        {
          "internalType": "uint256",
          "name": "proposalId",
          "type": "uint256"
        },
        {
          "internalType": "bool",
          "name": "support",
          "type": "bool"
        }
      ],
      "name": "vote",
      "outputs": [],
      "stateMutability": "nonpayable",
      "type": "function"
    },
    {
      "inputs": [
        {
          "internalType": "uint256",
          "name": "proposalId",
          "type": "uint256"
        }
      ],
      "name": "voteAgainst",
      "outputs": [],
      "stateMutability": "nonpayable",
      "type": "function"
    },
    {
      "inputs": [
        {
          "internalType": "uint256",
          "name": "proposalId",
          "type": "uint256"
        }
      ],
      "name": "voteFor",
      "outputs": [],
      "stateMutability": "nonpayable",
      "type": "function"
    }
  ],
  "bytecode": "0x608060405234801561001057600080fd5b506000600155610e1c806100256000396000f3fe608060405234801561001057600080fd5b50600436106100b45760003560e01c806386a505351161007157806386a5053514610167578063b1610d7e1461017a578063b79661f214610184578063c7f758a81461018d578063c9d27afe146101a0578063da35c664146101b357600080fd5b8063013cf08b146100b95780631a5007dd146100ea578063401853b7146100fc578063438596321461011c57806365e481e21461013f578063750e443a14610152575b600080fd5b6100cc6100c73660046109a8565b6101bc565b6040516100e199989796959493929190610a07565b60405180910390f35b6001545b6040519081526020016100e1565b61010f61010a3660046109a8565b610323565b6040516100e19190610a75565b61012f61012a366004610a8f565b610447565b60405190151581526020016100e1565b6100ee61014d366004610b6e565b61049a565b6101656101603660046109a8565b61060c565b005b6101656101753660046109a8565b61061a565b6100ee6212750081565b6100ee6103e881565b6100cc61019b3660046109a8565b610625565b6101656101ae366004610bd2565b6107e2565b6100ee60015481565b600060208190529081526040902080546001820180549192916101de90610bfc565b80601f016020809104026020016040519081016040528092919081815260200182805461020a90610bfc565b80156102575780601f1061022c57610100808354040283529160200191610257565b820191906000526020600020905b81548152906001019060200180831161023a57829003601f168201915b50505050509080600201805461026c90610bfc565b80601f016020809104026020016040519081016040528092919081815260200182805461029890610bfc565b80156102e55780601f106102ba576101008083540402835291602001916102e5565b820191906000526020600020905b8154815290600101906020018083116102c857829003601f168201915b5050506003840154600485015460058601546006870154600788015460089098015496976001600160a01b0390941696929550909350919060ff1689565b60608160015481106103505760405162461bcd60e51b815260040161034790610c30565b60405180910390fd5b6000838152602081905260409020600881015460ff16156103c9578060060154816005015411156103a2576040518060400160405280600681526020016514185cdcd95960d21b815250925050610441565b6040518060400160405280600681526020016511985a5b195960d21b815250925050610441565b806004015442111561041e57806006015481600501541180156103f257506103e8816005015410155b156103a2576040518060400160405280600681526020016514185cdcd95960d21b815250925050610441565b6040518060400160405280600681526020016541637469766560d01b8152509250505b50919050565b600082600154811061046b5760405162461bcd60e51b815260040161034790610c30565b50506000918252602082815260408084206001600160a01b039390931684526009909201905290205460ff1690565b6000808351116104e45760405162461bcd60e51b81526020600482015260156024820152745469746c652063616e6e6f7420626520656d70747960581b6044820152606401610347565b60008251116105355760405162461bcd60e51b815260206004820152601b60248201527f4465736372697074696f6e2063616e6e6f7420626520656d70747900000000006044820152606401610347565b600180546000918261054683610c7d565b9091555060008181526020819052604090208181559091506001810161056c8682610ce5565b506002810161057b8582610ce5565b506003810180546001600160a01b0319163317905561059d6212750042610da5565b6004820181905560006005830181905560068301819055600783015560088201805460ff1916905560405183917f9cc3d9dd626042cdefb76484b91708c3207b637214b44f20111c893548d9c85f916105fa918991339190610db8565b60405180910390a25090505b92915050565b6106178160006107f0565b50565b6106178160016107f0565b60006060806000806000806000808960015481106106555760405162461bcd60e51b815260040161034790610c30565b60008b81526020819052604090208054600382015460048301546005840154600685015460078601546008870154600188018054909660028a01966001600160a01b0390911695909490939092909160ff9091169088906106b590610bfc565b80601f01602080910402602001604051908101604052809291908181526020018280546106e190610bfc565b801561072e5780601f106107035761010080835404028352916020019161072e565b820191906000526020600020905b81548152906001019060200180831161071157829003601f168201915b5050505050975086805461074190610bfc565b80601f016020809104026020016040519081016040528092919081815260200182805461076d90610bfc565b80156107ba5780601f1061078f576101008083540402835291602001916107ba565b820191906000526020600020905b81548152906001019060200180831161079d57829003601f168201915b505050505096509a509a509a509a509a509a509a509a509a5050509193959799909294969850565b6107ec82826107f0565b5050565b8160015481106108125760405162461bcd60e51b815260040161034790610c30565b60008381526020819052604090206004015483904211156108755760405162461bcd60e51b815260206004820152601760248201527f566f74696e6720706572696f642068617320656e6465640000000000000000006044820152606401610347565b600084815260208181526040808320338452600981019092529091205460ff16156108e25760405162461bcd60e51b815260206004820152601e60248201527f416c726561647920766f746564206f6e20746869732070726f706f73616c00006044820152606401610347565b3360009081526009820160205260408120805460ff191660011790556007820180549161090e83610c7d565b919050555083156109355760058101805490600061092b83610c7d565b919050555061094d565b60068101805490600061094783610c7d565b91905055505b6005810154600682015460408051338152871515602082015290810192909252606082015285907f77a255f45c79d26605c257d8dfc37f9a619f53963ddbed1e95aa0aab1c801cee9060800160405180910390a25050505050565b6000602082840312156109ba57600080fd5b5035919050565b6000815180845260005b818110156109e7576020818501810151868301820152016109cb565b506000602082860101526020601f19601f83011685010191505092915050565b60006101208b8352806020840152610a218184018c6109c1565b90508281036040840152610a35818b6109c1565b6001600160a01b039990991660608401525050608081019590955260a085019390935260c084019190915260e08301521515610100909101529392505050565b602081526000610a8860208301846109c1565b9392505050565b60008060408385031215610aa257600080fd5b8235915060208301356001600160a01b0381168114610ac057600080fd5b809150509250929050565b634e487b7160e01b600052604160045260246000fd5b600082601f830112610af257600080fd5b813567ffffffffffffffff80821115610b0d57610b0d610acb565b604051601f8301601f19908116603f01168101908282118183101715610b3557610b35610acb565b81604052838152866020858801011115610b4e57600080fd5b836020870160208301376000602085830101528094505050505092915050565b60008060408385031215610b8157600080fd5b823567ffffffffffffffff80821115610b9957600080fd5b610ba586838701610ae1565b93506020850135915080821115610bbb57600080fd5b50610bc885828601610ae1565b9150509250929050565b60008060408385031215610be557600080fd5b8235915060208301358015158114610ac057600080fd5b600181811c90821680610c1057607f821691505b60208210810361044157634e487b7160e01b600052602260045260246000fd5b60208082526017908201527f50726f706f73616c20646f6573206e6f74206578697374000000000000000000604082015260600190565b634e487b7160e01b600052601160045260246000fd5b600060018201610c8f57610c8f610c67565b5060010190565b601f821115610ce057600081815260208120601f850160051c81016020861015610cbd5750805b601f850160051c820191505b81811015610cdc57828155600101610cc9565b5050505b505050565b815167ffffffffffffffff811115610cff57610cff610acb565b610d1381610d0d8454610bfc565b84610c96565b602080601f831160018114610d485760008415610d305750858301515b600019600386901b1c1916600185901b178555610cdc565b600085815260208120601f198616915b82811015610d7757888601518255948401946001909101908401610d58565b5085821015610d955787850151600019600388901b60f8161c191681555b5050505050600190811b01905550565b8082018082111561060657610606610c67565b606081526000610dcb60608301866109c1565b6001600160a01b03949094166020830152506040015291905056fea26469706673582212200577535673c0f29cefb39c98479e5da057c06723135f879fa3b9d453e4eedcc664736f6c63430008130033",
  "linkReferences": {},
  "deployedLinkReferences": {}
}