{
  "_format": "hh-sol-artifact-1",
  "contractName": "BankMock",
  "sourceName": "contracts/BankMock.sol",
  "abi": [
    {
      "anonymous": false,
      "inputs": [
        {
          "indexed": true,
          "internalType": "address",
          "name": "user",
          "type": "address"
        },
        {
          "indexed": false,
          "internalType": "uint256",
          "name": "amount",
          "type": "uint256"
        },
        {
          "indexed": false,
          "internalType": "uint256",
          "name": "timestamp",
          "type": "uint256"
        }
      ],
      "name": "Deposit",
      "type": "event"
    },
    {
      "anonymous": false,
      "inputs": [
        {
          "indexed": true,
          "internalType": "address",
          "name": "from",
          "type": "address"
        },
        {
          "indexed": true,
          "internalType": "address",
          "name": "to",
          "type": "address"
        },
        {
          "indexed": false,
          "internalType": "uint256",
          "name": "amount",
          "type": "uint256"
        },
        {
          "indexed": false,
          "internalType": "uint256",
          "name": "timestamp",
          "type": "uint256"
        }
      ],
      "name": "Transfer",
      "type": "event"
    },
    {
      "anonymous": false,
      "inputs": [
        {
          "indexed": true,
          "internalType": "address",
          "name": "user",
          "type": "address"
        },
        {
          "indexed": false,
          "internalType": "uint256",
          "name": "amount",
          "type": "uint256"
        },
        {
          "indexed": false,
          "internalType": "uint256",
          "name": "timestamp",
          "type": "uint256"
        }
      ],
      "name": "Withdrawal",
      "type": "event"
    },
    {
      "stateMutability": "payable",
      "type": "fallback"
    },
    {
      "inputs": [
        {
          "internalType": "address",
          "name": "",
          "type": "address"
        }
      ],
      "name": "balances",
      "outputs": [
        {
          "internalType": "uint256",
          "name": "",
          "type": "uint256"
        }
      ],
      "stateMutability": "view",
      "type": "function"
    },
    {
      "inputs": [],
      "name": "deposit",
      "outputs": [],
      "stateMutability": "payable",
      "type": "function"
    },
    {
      "inputs": [
        {
          "internalType": "address",
          "name": "user",
          "type": "address"
        }
      ],
      "name": "getBalance",
      "outputs": [
        {
          "internalType": "uint256",
          "name": "",
          "type": "uint256"
        }
      ],
      "stateMutability": "view",
      "type": "function"
    },
    {
      "inputs": [],
      "name": "getTotalTransactions",
      "outputs": [
        {
          "internalType": "uint256",
          "name": "",
          "type": "uint256"
        }
      ],
      "stateMutability": "view",
      "type": "function"
    },
    {
      "inputs": [
        {
          "internalType": "address",
          "name": "user",
          "type": "address"
        }
      ],
      "name": "getUserTransactions",
      "outputs": [
        {
          "components": [
            {
              "internalType": "uint256",
              "name": "id",
              "type": "uint256"
            },
            {
              "internalType": "string",
              "name": "action",
              "type": "string"
            },
            {
              "internalType": "uint256",
              "name": "amount",
              "type": "uint256"
            },
            {
              "internalType": "address",
              "name": "from",
              "type": "address"
            },
            {
              "internalType": "address",
              "name": "to",
              "type": "address"
            },
            {
              "internalType": "uint256",
              "name": "timestamp",
              "type": "uint256"
            },
            {
              "internalType": "bool",
              "name": "isComplete",
              "type": "bool"
            }
          ],
          "internalType": "struct BankMock.Transaction[]",
          "name": "",
          "type": "tuple[]"
        }
      ],
      "stateMutability": "view",
      "type": "function"
    },
    {
      "inputs": [],
      "name": "totalValueLocked",
      "outputs": [
        {
          "internalType": "uint256",
          "name": "",
          "type": "uint256"
        }
      ],
      "stateMutability": "view",
      "type": "function"
    },
    {
      "inputs": [
        {
          "internalType": "address",
          "name": "to",
          "type": "address"
        },
        {
          "internalType": "uint256",
          "name": "amount",
          "type": "uint256"
        }
      ],
      "name": "transfer",
      "outputs": [],
      "stateMutability": "nonpayable",
      "type": "function"
    },
    {
      "inputs": [
        {
          "internalType": "address",
          "name": "",
          "type": "address"
        },
        {
          "internalType": "uint256",
          "name": "",
          "type": "uint256"
        }
      ],
      "name": "userTransactions",
      "outputs": [
        {
          "internalType": "uint256",
          "name": "id",
          "type": "uint256"
        },
        {
          "internalType": "string",
          "name": "action",
          "type": "string"
        },
        {
          "internalType": "uint256",
          "name": "amount",
          "type": "uint256"
        },
        {
          "internalType": "address",
          "name": "from",
          "type": "address"
        },
        {
          "internalType": "address",
          "name": "to",
          "type": "address"
        },
        {
          "internalType": "uint256",
          "name": "timestamp",
          "type": "uint256"
        },
        {
          "internalType": "bool",
          "name": "isComplete",
          "type": "bool"
        }
      ],
      "stateMutability": "view",
      "type": "function"
    },
    {
      "inputs": [
        {
          "internalType": "uint256",
          "name": "amount",
          "type": "uint256"
        }
      ],
      "name": "withdraw",
      "outputs": [],
      "stateMutability": "nonpayable",
      "type": "function"
    },
    {
      "stateMutability": "payable",
      "type": "receive"
    }
  ],
  "bytecode": "0x608060405234801561001057600080fd5b506112ce806100206000396000f3fe60806040526004361061008a5760003560e01c8063b842ec4411610059578063b842ec4414610301578063d0e30db014610334578063ec18154e1461033c578063ef92539914610352578063f8b2cb4f1461037f5761024a565b806327e235e31461026a5780632e1a7d4d146102aa578063a9059cbb146102cc578063b5c604ff146102ec5761024a565b3661024a57600034116100b85760405162461bcd60e51b81526004016100af90610ec7565b60405180910390fd5b33600090815260208190526040812080543492906100d7908490610f22565b9250508190555034600260008282546100f09190610f22565b9250508190555060006040518060e001604052806003600081548092919061011790610f3b565b90915550815260408051808201825260078082526611195c1bdcda5d60ca1b6020838101919091528085019290925234838501523360608501819052608085018190524260a0860152600160c09095018590526000908152848352928320805480860182559084529282902085519390910201918255830151929350839290918201906101a49082610ff3565b50604082810151600283015560608301516003830180546001600160a01b03199081166001600160a01b03938416179091556080850151600485018054909216921691909117905560a0830151600583015560c0909201516006909101805460ff1916911515919091179055805134815242602082015233917f90890809c654f11d6e72a28fa60149770a0d11ec6c92319d6ceb2bb0a4ea1a15910160405180910390a2005b600034116100b85760405162461bcd60e51b81526004016100af90610ec7565b34801561027657600080fd5b506102976102853660046110cf565b60006020819052908152604090205481565b6040519081526020015b60405180910390f35b3480156102b657600080fd5b506102ca6102c53660046110f1565b6103b5565b005b3480156102d857600080fd5b506102ca6102e736600461110a565b61068f565b3480156102f857600080fd5b50600354610297565b34801561030d57600080fd5b5061032161031c36600461110a565b610ac3565b6040516102a1979695949392919061117a565b6102ca610bba565b34801561034857600080fd5b5061029760025481565b34801561035e57600080fd5b5061037261036d3660046110cf565b610d6d565b6040516102a191906111c9565b34801561038b57600080fd5b5061029761039a3660046110cf565b6001600160a01b031660009081526020819052604090205490565b3360009081526020819052604090205481111561040b5760405162461bcd60e51b8152602060048201526014602482015273496e73756666696369656e742062616c616e636560601b60448201526064016100af565b6000811161046c5760405162461bcd60e51b815260206004820152602860248201527f5769746864726177616c20616d6f756e74206d75737420626520677265617465604482015267072207468616e20360c41b60648201526084016100af565b336000908152602081905260408120805483929061048b908490611285565b9250508190555080600260008282546104a49190611285565b9250508190555060006040518060e00160405280600360008154809291906104cb90610f3b565b909155508152604080518082018252600a81526915da5d1a191c985dd85b60b21b6020828101919091528084019190915281830186905233606084018190526000608085018190524260a0860152600160c0909501859052908152838252918220805480850182559083529181902084516007909302019182558301519293508392909182019061055c9082610ff3565b50604082810151600283015560608301516003830180546001600160a01b03199081166001600160a01b03938416179091556080850151600485018054909216921691909117905560a0830151600583015560c0909201516006909101805460ff191691151591909117905551600090339084908381818185875af1925050503d8060008114610608576040519150601f19603f3d011682016040523d82523d6000602084013e61060d565b606091505b50509050806106505760405162461bcd60e51b815260206004820152600f60248201526e151c985b9cd9995c8819985a5b1959608a1b60448201526064016100af565b6040805184815242602082015233917fdf273cb619d95419a9cd0ec88123a0538c85064229baa6363788f743fff90deb910160405180910390a2505050565b6001600160a01b0382166106d75760405162461bcd60e51b815260206004820152600f60248201526e496e76616c6964206164647265737360881b60448201526064016100af565b336001600160a01b0383160361072f5760405162461bcd60e51b815260206004820152601b60248201527f43616e6e6f74207472616e7366657220746f20796f757273656c66000000000060448201526064016100af565b336000908152602081905260409020548111156107855760405162461bcd60e51b8152602060048201526014602482015273496e73756666696369656e742062616c616e636560601b60448201526064016100af565b600081116107e45760405162461bcd60e51b815260206004820152602660248201527f5472616e7366657220616d6f756e74206d75737420626520677265617465722060448201526507468616e20360d41b60648201526084016100af565b3360009081526020819052604081208054839290610803908490611285565b90915550506001600160a01b03821660009081526020819052604081208054839290610830908490610f22565b9250508190555060006040518060e001604052806003600081548092919061085790610f3b565b909155508152604080518082018252600c81526b151c985b9cd9995c8813dd5d60a21b6020828101919091528084019190915281830186905233606084018190526001600160a01b03881660808501524260a0850152600160c0909401849052600090815283825291822080548085018255908352918190208451600790930201918255830151929350839290918201906108f29082610ff3565b5060408281015160028301556060830151600380840180546001600160a01b039384166001600160a01b03199182161790915560808601516004860180549190941691161790915560a0840151600584015560c0909301516006909201805492151560ff1990931692909217909155805160e0810190915281546000928291908461097c83610f3b565b909155508152604080518082018252600b81526a2a3930b739b332b91024b760a91b602082810191909152808401919091528183018790523360608401526001600160a01b038816608084018190524260a0850152600160c090940184905260009081528382529182208054808501825590835291819020845160079093020191825583015192935083929091820190610a169082610ff3565b50604082810151600283015560608301516003830180546001600160a01b03199081166001600160a01b0393841617909155608085015160048501805490921690831617905560a0840151600584015560c0909301516006909201805460ff19169215159290921790915580518581524260208201529186169133917f9ed053bb818ff08b8353cd46f78db1f0799f31c9e4458fdb425c10eccd2efc44910160405180910390a350505050565b60016020528160005260406000208181548110610adf57600080fd5b906000526020600020906007020160009150915050806000015490806001018054610b0990610f6a565b80601f0160208091040260200160405190810160405280929190818152602001828054610b3590610f6a565b8015610b825780601f10610b5757610100808354040283529160200191610b82565b820191906000526020600020905b815481529060010190602001808311610b6557829003601f168201915b5050506002840154600385015460048601546005870154600690970154959692956001600160a01b0392831695509116925060ff1687565b60003411610bda5760405162461bcd60e51b81526004016100af90610ec7565b3360009081526020819052604081208054349290610bf9908490610f22565b925050819055503460026000828254610c129190610f22565b9250508190555060006040518060e0016040528060036000815480929190610c3990610f3b565b90915550815260408051808201825260078082526611195c1bdcda5d60ca1b6020838101919091528085019290925234838501523360608501819052608085018190524260a0860152600160c0909501859052600090815284835292832080548086018255908452928290208551939091020191825583015192935083929091820190610cc69082610ff3565b50604082810151600283015560608301516003830180546001600160a01b03199081166001600160a01b03938416179091556080850151600485018054909216921691909117905560a0830151600583015560c0909201516006909101805460ff1916911515919091179055805134815242602082015233917f90890809c654f11d6e72a28fa60149770a0d11ec6c92319d6ceb2bb0a4ea1a15910160405180910390a250565b6001600160a01b0381166000908152600160209081526040808320805482518185028101850190935280835260609492939192909184015b82821015610ebc57838290600052602060002090600702016040518060e001604052908160008201548152602001600182018054610de290610f6a565b80601f0160208091040260200160405190810160405280929190818152602001828054610e0e90610f6a565b8015610e5b5780601f10610e3057610100808354040283529160200191610e5b565b820191906000526020600020905b815481529060010190602001808311610e3e57829003601f168201915b5050509183525050600282015460208083019190915260038301546001600160a01b03908116604084015260048401541660608301526005830154608083015260069092015460ff16151560a0909101529082526001929092019101610da5565b505050509050919050565b60208082526025908201527f4465706f73697420616d6f756e74206d75737420626520677265617465722074604082015264068616e20360dc1b606082015260800190565b634e487b7160e01b600052601160045260246000fd5b80820180821115610f3557610f35610f0c565b92915050565b600060018201610f4d57610f4d610f0c565b5060010190565b634e487b7160e01b600052604160045260246000fd5b600181811c90821680610f7e57607f821691505b602082108103610f9e57634e487b7160e01b600052602260045260246000fd5b50919050565b601f821115610fee57600081815260208120601f850160051c81016020861015610fcb5750805b601f850160051c820191505b81811015610fea57828155600101610fd7565b5050505b505050565b815167ffffffffffffffff81111561100d5761100d610f54565b6110218161101b8454610f6a565b84610fa4565b602080601f831160018114611056576000841561103e5750858301515b600019600386901b1c1916600185901b178555610fea565b600085815260208120601f198616915b8281101561108557888601518255948401946001909101908401611066565b50858210156110a35787850151600019600388901b60f8161c191681555b5050505050600190811b01905550565b80356001600160a01b03811681146110ca57600080fd5b919050565b6000602082840312156110e157600080fd5b6110ea826110b3565b9392505050565b60006020828403121561110357600080fd5b5035919050565b6000806040838503121561111d57600080fd5b611126836110b3565b946020939093013593505050565b6000815180845260005b8181101561115a5760208185018101518683018201520161113e565b506000602082860101526020601f19601f83011685010191505092915050565b87815260e06020820152600061119360e0830189611134565b6040830197909752506001600160a01b03948516606082015292909316608083015260a082015290151560c09091015292915050565b60006020808301818452808551808352604092508286019150828160051b87010184880160005b8381101561127757603f19898403018552815160e08151855288820151818a87015261121e82870182611134565b838a0151878b01526060808501516001600160a01b03908116918901919091526080808601519091169088015260a0808501519088015260c09384015115159390960192909252505093860193908601906001016111f0565b509098975050505050505050565b81810381811115610f3557610f35610f0c56fea2646970667358221220b4703ed0677a2c32fcc396c993995981a2379f104b542e7da4fc3cc90098dbaf64736f6c63430008130033",
  "linkReferences": {},
  "deployedLinkReferences": {}
}