{
  "_format": "hh-sol-artifact-1",
  "contractName": "Bank",
  "sourceName": "contracts/Bank.sol",
  "abi": [
    {
      "inputs": [],
      "stateMutability": "nonpayable",
      "type": "constructor"
    },
    {
      "anonymous": false,
      "inputs": [
        {
          "indexed": true,
          "internalType": "address",
          "name": "user",
          "type": "address"
        },
        {
          "indexed": false,
          "internalType": "uint256",
          "name": "amount",
          "type": "uint256"
        },
        {
          "indexed": false,
          "internalType": "uint256",
          "name": "timestamp",
          "type": "uint256"
        }
      ],
      "name": "Deposit",
      "type": "event"
    },
    {
      "anonymous": false,
      "inputs": [
        {
          "indexed": true,
          "internalType": "address",
          "name": "to",
          "type": "address"
        },
        {
          "indexed": false,
          "internalType": "uint256",
          "name": "amount",
          "type": "uint256"
        },
        {
          "indexed": false,
          "internalType": "uint256",
          "name": "timestamp",
          "type": "uint256"
        }
      ],
      "name": "TokenMinted",
      "type": "event"
    },
    {
      "anonymous": false,
      "inputs": [
        {
          "indexed": true,
          "internalType": "address",
          "name": "from",
          "type": "address"
        },
        {
          "indexed": true,
          "internalType": "address",
          "name": "to",
          "type": "address"
        },
        {
          "indexed": false,
          "internalType": "uint256",
          "name": "amount",
          "type": "uint256"
        },
        {
          "indexed": false,
          "internalType": "uint256",
          "name": "timestamp",
          "type": "uint256"
        }
      ],
      "name": "Transfer",
      "type": "event"
    },
    {
      "anonymous": false,
      "inputs": [
        {
          "indexed": true,
          "internalType": "address",
          "name": "user",
          "type": "address"
        },
        {
          "indexed": false,
          "internalType": "uint256",
          "name": "amount",
          "type": "uint256"
        },
        {
          "indexed": false,
          "internalType": "uint256",
          "name": "timestamp",
          "type": "uint256"
        }
      ],
      "name": "Withdrawal",
      "type": "event"
    },
    {
      "stateMutability": "payable",
      "type": "fallback"
    },
    {
      "inputs": [
        {
          "internalType": "address",
          "name": "",
          "type": "address"
        }
      ],
      "name": "balances",
      "outputs": [
        {
          "internalType": "uint256",
          "name": "",
          "type": "uint256"
        }
      ],
      "stateMutability": "view",
      "type": "function"
    },
    {
      "inputs": [],
      "name": "deposit",
      "outputs": [],
      "stateMutability": "payable",
      "type": "function"
    },
    {
      "inputs": [
        {
          "internalType": "address",
          "name": "user",
          "type": "address"
        }
      ],
      "name": "getBalance",
      "outputs": [
        {
          "internalType": "uint256",
          "name": "",
          "type": "uint256"
        }
      ],
      "stateMutability": "view",
      "type": "function"
    },
    {
      "inputs": [],
      "name": "getTopHolders",
      "outputs": [
        {
          "components": [
            {
              "internalType": "address",
              "name": "holder",
              "type": "address"
            },
            {
              "internalType": "uint256",
              "name": "balance",
              "type": "uint256"
            }
          ],
          "internalType": "struct Bank.TokenHolder[]",
          "name": "",
          "type": "tuple[]"
        }
      ],
      "stateMutability": "view",
      "type": "function"
    },
    {
      "inputs": [],
      "name": "getTotalTransactions",
      "outputs": [
        {
          "internalType": "uint256",
          "name": "",
          "type": "uint256"
        }
      ],
      "stateMutability": "view",
      "type": "function"
    },
    {
      "inputs": [
        {
          "internalType": "address",
          "name": "user",
          "type": "address"
        }
      ],
      "name": "getUserTransactions",
      "outputs": [
        {
          "components": [
            {
              "internalType": "uint256",
              "name": "id",
              "type": "uint256"
            },
            {
              "internalType": "string",
              "name": "action",
              "type": "string"
            },
            {
              "internalType": "uint256",
              "name": "amount",
              "type": "uint256"
            },
            {
              "internalType": "address",
              "name": "from",
              "type": "address"
            },
            {
              "internalType": "address",
              "name": "to",
              "type": "address"
            },
            {
              "internalType": "uint256",
              "name": "timestamp",
              "type": "uint256"
            },
            {
              "internalType": "bool",
              "name": "isComplete",
              "type": "bool"
            }
          ],
          "internalType": "struct Bank.Transaction[]",
          "name": "",
          "type": "tuple[]"
        }
      ],
      "stateMutability": "view",
      "type": "function"
    },
    {
      "inputs": [],
      "name": "governance",
      "outputs": [
        {
          "internalType": "contract Governance",
          "name": "",
          "type": "address"
        }
      ],
      "stateMutability": "view",
      "type": "function"
    },
    {
      "inputs": [
        {
          "internalType": "address",
          "name": "to",
          "type": "address"
        },
        {
          "internalType": "uint256",
          "name": "amount",
          "type": "uint256"
        }
      ],
      "name": "mintTokens",
      "outputs": [],
      "stateMutability": "nonpayable",
      "type": "function"
    },
    {
      "inputs": [
        {
          "internalType": "uint256",
          "name": "",
          "type": "uint256"
        }
      ],
      "name": "topHolders",
      "outputs": [
        {
          "internalType": "address",
          "name": "holder",
          "type": "address"
        },
        {
          "internalType": "uint256",
          "name": "balance",
          "type": "uint256"
        }
      ],
      "stateMutability": "view",
      "type": "function"
    },
    {
      "inputs": [],
      "name": "totalValueLocked",
      "outputs": [
        {
          "internalType": "uint256",
          "name": "",
          "type": "uint256"
        }
      ],
      "stateMutability": "view",
      "type": "function"
    },
    {
      "inputs": [
        {
          "internalType": "address",
          "name": "to",
          "type": "address"
        },
        {
          "internalType": "uint256",
          "name": "amount",
          "type": "uint256"
        }
      ],
      "name": "transfer",
      "outputs": [],
      "stateMutability": "nonpayable",
      "type": "function"
    },
    {
      "inputs": [
        {
          "internalType": "address",
          "name": "",
          "type": "address"
        },
        {
          "internalType": "uint256",
          "name": "",
          "type": "uint256"
        }
      ],
      "name": "userTransactions",
      "outputs": [
        {
          "internalType": "uint256",
          "name": "id",
          "type": "uint256"
        },
        {
          "internalType": "string",
          "name": "action",
          "type": "string"
        },
        {
          "internalType": "uint256",
          "name": "amount",
          "type": "uint256"
        },
        {
          "internalType": "address",
          "name": "from",
          "type": "address"
        },
        {
          "internalType": "address",
          "name": "to",
          "type": "address"
        },
        {
          "internalType": "uint256",
          "name": "timestamp",
          "type": "uint256"
        },
        {
          "internalType": "bool",
          "name": "isComplete",
          "type": "bool"
        }
      ],
      "stateMutability": "view",
      "type": "function"
    },
    {
      "inputs": [
        {
          "internalType": "uint256",
          "name": "amount",
          "type": "uint256"
        }
      ],
      "name": "withdraw",
      "outputs": [],
      "stateMutability": "nonpayable",
      "type": "function"
    },
    {
      "stateMutability": "payable",
      "type": "receive"
    }
  ],
  "bytecode": "0x608060405234801561001057600080fd5b5060405161001d9061005f565b604051809103906000f080158015610039573d6000803e3d6000fd5b50600580546001600160a01b0319166001600160a01b039290921691909117905561006c565b610e4180611a6a83390190565b6119ef8061007b6000396000f3fe6080604052600436106100c65760003560e01c8063b5c604ff1161007f578063ec18154e11610059578063ec18154e1461041a578063ef92539914610430578063f0dda65c1461045d578063f8b2cb4f1461047d5761028f565b8063b5c604ff146103ca578063b842ec44146103df578063d0e30db0146104125761028f565b806327e235e3146102af5780632e1a7d4d146102ef5780635aa6e675146103115780637a2d737114610349578063a827340914610388578063a9059cbb146103aa5761028f565b3661028f57600034116100f45760405162461bcd60e51b81526004016100eb90611564565b60405180910390fd5b33600090815260208190526040812080543492906101139084906115bf565b92505081905550346003600082825461012c91906115bf565b9250508190555060006040518060e0016040528060046000815480929190610153906115d8565b90915550815260408051808201825260078082526611195c1bdcda5d60ca1b6020838101919091528085019290925234838501523360608501819052608085018190524260a0860152600160c09095018590526000908152848352928320805480860182559084529282902085519390910201918255830151929350839290918201906101e09082611690565b506040820151600282015560608201516003820180546001600160a01b039283166001600160a01b031991821617909155608084015160048401805491909316911617905560a0820151600582015560c0909101516006909101805491151560ff199092169190911790556102536104b3565b6040805134815242602082015233917f90890809c654f11d6e72a28fa60149770a0d11ec6c92319d6ceb2bb0a4ea1a15910160405180910390a2005b600034116100f45760405162461bcd60e51b81526004016100eb90611564565b3480156102bb57600080fd5b506102dc6102ca36600461176c565b60006020819052908152604090205481565b6040519081526020015b60405180910390f35b3480156102fb57600080fd5b5061030f61030a36600461178e565b610808565b005b34801561031d57600080fd5b50600554610331906001600160a01b031681565b6040516001600160a01b0390911681526020016102e6565b34801561035557600080fd5b5061036961036436600461178e565b610aec565b604080516001600160a01b0390931683526020830191909152016102e6565b34801561039457600080fd5b5061039d610b24565b6040516102e691906117a7565b3480156103b657600080fd5b5061030f6103c53660046117ff565b610b99565b3480156103d657600080fd5b506004546102dc565b3480156103eb57600080fd5b506103ff6103fa3660046117ff565b610fde565b6040516102e6979695949392919061186f565b61030f6110d5565b34801561042657600080fd5b506102dc60035481565b34801561043c57600080fd5b5061045061044b36600461176c565b611291565b6040516102e691906118be565b34801561046957600080fd5b5061030f6104783660046117ff565b6113eb565b34801561048957600080fd5b506102dc61049836600461176c565b6001600160a01b031660009081526020819052604090205490565b60008060005b60025481101561051d57336001600160a01b0316600282815481106104e0576104e061197a565b60009182526020909120600290910201546001600160a01b03160361050b576001925080915061051d565b80610515816115d8565b9150506104b9565b508115610562573360009081526020819052604090205460028054839081106105485761054861197a565b906000526020600020906002020160010181905550610601565b6040805180820182523380825260009081526020818152928120549282019283526002805460018101825591819052915191027f405787fa12a823e0f2b7631cc41b3ba8828b3321ca811111fa75cd3aa3bb5ace810180546001600160a01b03939093166001600160a01b03199093169290921790915590517f405787fa12a823e0f2b7631cc41b3ba8828b3321ca811111fa75cd3aa3bb5acf909101555b60005b60025461061390600190611990565b8110156107b85760006106278260016115bf565b90505b6002548110156107a557600282815481106106475761064761197a565b9060005260206000209060020201600101546002828154811061066c5761066c61197a565b9060005260206000209060020201600101541115610793576000600283815481106106995761069961197a565b600091825260209182902060408051808201909152600292830290910180546001600160a01b031682526001015492810192909252805491925090839081106106e4576106e461197a565b9060005260206000209060020201600284815481106107055761070561197a565b600091825260209091208254600292830290910180546001600160a01b0319166001600160a01b039092169190911781556001928301549201919091558054829190849081106107575761075761197a565b600091825260209182902083516002929092020180546001600160a01b0319166001600160a01b03909216919091178155910151600190910155505b8061079d816115d8565b91505061062a565b50806107b0816115d8565b915050610604565b505b600254600a10156108045760028054806107d6576107d66119a3565b60008281526020812060026000199093019283020180546001600160a01b03191681556001015590556107ba565b5050565b3360009081526020819052604090205481111561085e5760405162461bcd60e51b8152602060048201526014602482015273496e73756666696369656e742062616c616e636560601b60448201526064016100eb565b600081116108bf5760405162461bcd60e51b815260206004820152602860248201527f5769746864726177616c20616d6f756e74206d75737420626520677265617465604482015267072207468616e20360c41b60648201526084016100eb565b33600090815260208190526040812080548392906108de908490611990565b9250508190555080600360008282546108f79190611990565b9250508190555060006040518060e001604052806004600081548092919061091e906115d8565b909155508152604080518082018252600a81526915da5d1a191c985dd85b60b21b6020828101919091528084019190915281830186905233606084018190526000608085018190524260a0860152600160c090950185905290815283825291822080548085018255908352918190208451600790930201918255830151929350839290918201906109af9082611690565b506040820151600282015560608201516003820180546001600160a01b039283166001600160a01b031991821617909155608084015160048401805491909316911617905560a0820151600582015560c0909101516006909101805491151560ff19909216919091179055610a226104b3565b604051600090339084908381818185875af1925050503d8060008114610a64576040519150601f19603f3d011682016040523d82523d6000602084013e610a69565b606091505b5050905080610aac5760405162461bcd60e51b815260206004820152600f60248201526e151c985b9cd9995c8819985a5b1959608a1b60448201526064016100eb565b6040805184815242602082015233917fdf273cb619d95419a9cd0ec88123a0538c85064229baa6363788f743fff90deb91015b60405180910390a2505050565b60028181548110610afc57600080fd5b6000918252602090912060029091020180546001909101546001600160a01b03909116915082565b60606002805480602002602001604051908101604052809291908181526020016000905b82821015610b90576000848152602090819020604080518082019091526002850290910180546001600160a01b03168252600190810154828401529083529092019101610b48565b50505050905090565b816001600160a01b038116610be25760405162461bcd60e51b815260206004820152600f60248201526e496e76616c6964206164647265737360881b60448201526064016100eb565b336001600160a01b03841603610c3a5760405162461bcd60e51b815260206004820152601b60248201527f43616e6e6f74207472616e7366657220746f20796f757273656c66000000000060448201526064016100eb565b33600090815260208190526040902054821115610c905760405162461bcd60e51b8152602060048201526014602482015273496e73756666696369656e742062616c616e636560601b60448201526064016100eb565b60008211610cef5760405162461bcd60e51b815260206004820152602660248201527f5472616e7366657220616d6f756e74206d75737420626520677265617465722060448201526507468616e20360d41b60648201526084016100eb565b3360009081526020819052604081208054849290610d0e908490611990565b90915550506001600160a01b03831660009081526020819052604081208054849290610d3b9084906115bf565b9250508190555060006040518060e0016040528060046000815480929190610d62906115d8565b909155508152604080518082018252600c81526b151c985b9cd9995c8813dd5d60a21b6020828101919091528084019190915281830187905233606084018190526001600160a01b03891660808501524260a0850152600160c090940184905260009081528382529182208054808501825590835291819020845160079093020191825583015192935083929091820190610dfd9082611690565b50604082810151600283015560608301516003830180546001600160a01b03199081166001600160a01b03938416179091556080850151600480860180549093169190931617905560a0840151600584015560c0909301516006909201805460ff191692151592909217909155805160e08101909152815460009282919084610e85836115d8565b909155508152604080518082018252600b81526a2a3930b739b332b91024b760a91b602082810191909152808401919091528183018890523360608401526001600160a01b038916608084018190524260a0850152600160c090940184905260009081528382529182208054808501825590835291819020845160079093020191825583015192935083929091820190610f1f9082611690565b506040820151600282015560608201516003820180546001600160a01b039283166001600160a01b031991821617909155608084015160048401805491909316911617905560a0820151600582015560c0909101516006909101805491151560ff19909216919091179055610f926104b3565b604080518581524260208201526001600160a01b0387169133917f9ed053bb818ff08b8353cd46f78db1f0799f31c9e4458fdb425c10eccd2efc44910160405180910390a35050505050565b60016020528160005260406000208181548110610ffa57600080fd5b90600052602060002090600702016000915091505080600001549080600101805461102490611607565b80601f016020809104026020016040519081016040528092919081815260200182805461105090611607565b801561109d5780601f106110725761010080835404028352916020019161109d565b820191906000526020600020905b81548152906001019060200180831161108057829003601f168201915b5050506002840154600385015460048601546005870154600690970154959692956001600160a01b0392831695509116925060ff1687565b600034116110f55760405162461bcd60e51b81526004016100eb90611564565b33600090815260208190526040812080543492906111149084906115bf565b92505081905550346003600082825461112d91906115bf565b9250508190555060006040518060e0016040528060046000815480929190611154906115d8565b90915550815260408051808201825260078082526611195c1bdcda5d60ca1b6020838101919091528085019290925234838501523360608501819052608085018190524260a0860152600160c09095018590526000908152848352928320805480860182559084529282902085519390910201918255830151929350839290918201906111e19082611690565b506040820151600282015560608201516003820180546001600160a01b039283166001600160a01b031991821617909155608084015160048401805491909316911617905560a0820151600582015560c0909101516006909101805491151560ff199092169190911790556112546104b3565b6040805134815242602082015233917f90890809c654f11d6e72a28fa60149770a0d11ec6c92319d6ceb2bb0a4ea1a15910160405180910390a250565b6001600160a01b0381166000908152600160209081526040808320805482518185028101850190935280835260609492939192909184015b828210156113e057838290600052602060002090600702016040518060e00160405290816000820154815260200160018201805461130690611607565b80601f016020809104026020016040519081016040528092919081815260200182805461133290611607565b801561137f5780601f106113545761010080835404028352916020019161137f565b820191906000526020600020905b81548152906001019060200180831161136257829003601f168201915b5050509183525050600282015460208083019190915260038301546001600160a01b03908116604084015260048401541660608301526005830154608083015260069092015460ff16151560a09091015290825260019290920191016112c9565b505050509050919050565b6005546001600160a01b031633146114455760405162461bcd60e51b815260206004820152601d60248201527f4f6e6c7920676f7665726e616e63652063616e2063616c6c207468697300000060448201526064016100eb565b816001600160a01b03811661148e5760405162461bcd60e51b815260206004820152600f60248201526e496e76616c6964206164647265737360881b60448201526064016100eb565b600082116114de5760405162461bcd60e51b815260206004820152601d60248201527f416d6f756e74206d7573742062652067726561746572207468616e203000000060448201526064016100eb565b6001600160a01b038316600090815260208190526040812080548492906115069084906115bf565b92505081905550816003600082825461151f91906115bf565b9091555050604080518381524260208201526001600160a01b038516917f96234cb3d6c373a1aaa06497a540bc166d4b0359243a088eaf95e21d7253d0be9101610adf565b60208082526025908201527f4465706f73697420616d6f756e74206d75737420626520677265617465722074604082015264068616e20360dc1b606082015260800190565b634e487b7160e01b600052601160045260246000fd5b808201808211156115d2576115d26115a9565b92915050565b6000600182016115ea576115ea6115a9565b5060010190565b634e487b7160e01b600052604160045260246000fd5b600181811c9082168061161b57607f821691505b60208210810361163b57634e487b7160e01b600052602260045260246000fd5b50919050565b601f82111561168b57600081815260208120601f850160051c810160208610156116685750805b601f850160051c820191505b8181101561168757828155600101611674565b5050505b505050565b815167ffffffffffffffff8111156116aa576116aa6115f1565b6116be816116b88454611607565b84611641565b602080601f8311600181146116f357600084156116db5750858301515b600019600386901b1c1916600185901b178555611687565b600085815260208120601f198616915b8281101561172257888601518255948401946001909101908401611703565b50858210156117405787850151600019600388901b60f8161c191681555b5050505050600190811b01905550565b80356001600160a01b038116811461176757600080fd5b919050565b60006020828403121561177e57600080fd5b61178782611750565b9392505050565b6000602082840312156117a057600080fd5b5035919050565b602080825282518282018190526000919060409081850190868401855b828110156117f257815180516001600160a01b031685528601518685015292840192908501906001016117c4565b5091979650505050505050565b6000806040838503121561181257600080fd5b61181b83611750565b946020939093013593505050565b6000815180845260005b8181101561184f57602081850181015186830182015201611833565b506000602082860101526020601f19601f83011685010191505092915050565b87815260e06020820152600061188860e0830189611829565b6040830197909752506001600160a01b03948516606082015292909316608083015260a082015290151560c09091015292915050565b60006020808301818452808551808352604092508286019150828160051b87010184880160005b8381101561196c57603f19898403018552815160e08151855288820151818a87015261191382870182611829565b838a0151878b01526060808501516001600160a01b03908116918901919091526080808601519091169088015260a0808501519088015260c09384015115159390960192909252505093860193908601906001016118e5565b509098975050505050505050565b634e487b7160e01b600052603260045260246000fd5b818103818111156115d2576115d26115a9565b634e487b7160e01b600052603160045260246000fdfea2646970667358221220457ddcfa3e45b736b741fcd730b0eff196e3336c9431406e27e8c7c4551f348f64736f6c63430008130033608060405234801561001057600080fd5b506000600155610e1c806100256000396000f3fe608060405234801561001057600080fd5b50600436106100b45760003560e01c806386a505351161007157806386a5053514610167578063b1610d7e1461017a578063b79661f214610184578063c7f758a81461018d578063c9d27afe146101a0578063da35c664146101b357600080fd5b8063013cf08b146100b95780631a5007dd146100ea578063401853b7146100fc578063438596321461011c57806365e481e21461013f578063750e443a14610152575b600080fd5b6100cc6100c73660046109a8565b6101bc565b6040516100e199989796959493929190610a07565b60405180910390f35b6001545b6040519081526020016100e1565b61010f61010a3660046109a8565b610323565b6040516100e19190610a75565b61012f61012a366004610a8f565b610447565b60405190151581526020016100e1565b6100ee61014d366004610b6e565b61049a565b6101656101603660046109a8565b61060c565b005b6101656101753660046109a8565b61061a565b6100ee6212750081565b6100ee6103e881565b6100cc61019b3660046109a8565b610625565b6101656101ae366004610bd2565b6107e2565b6100ee60015481565b600060208190529081526040902080546001820180549192916101de90610bfc565b80601f016020809104026020016040519081016040528092919081815260200182805461020a90610bfc565b80156102575780601f1061022c57610100808354040283529160200191610257565b820191906000526020600020905b81548152906001019060200180831161023a57829003601f168201915b50505050509080600201805461026c90610bfc565b80601f016020809104026020016040519081016040528092919081815260200182805461029890610bfc565b80156102e55780601f106102ba576101008083540402835291602001916102e5565b820191906000526020600020905b8154815290600101906020018083116102c857829003601f168201915b5050506003840154600485015460058601546006870154600788015460089098015496976001600160a01b0390941696929550909350919060ff1689565b60608160015481106103505760405162461bcd60e51b815260040161034790610c30565b60405180910390fd5b6000838152602081905260409020600881015460ff16156103c9578060060154816005015411156103a2576040518060400160405280600681526020016514185cdcd95960d21b815250925050610441565b6040518060400160405280600681526020016511985a5b195960d21b815250925050610441565b806004015442111561041e57806006015481600501541180156103f257506103e8816005015410155b156103a2576040518060400160405280600681526020016514185cdcd95960d21b815250925050610441565b6040518060400160405280600681526020016541637469766560d01b8152509250505b50919050565b600082600154811061046b5760405162461bcd60e51b815260040161034790610c30565b50506000918252602082815260408084206001600160a01b039390931684526009909201905290205460ff1690565b6000808351116104e45760405162461bcd60e51b81526020600482015260156024820152745469746c652063616e6e6f7420626520656d70747960581b6044820152606401610347565b60008251116105355760405162461bcd60e51b815260206004820152601b60248201527f4465736372697074696f6e2063616e6e6f7420626520656d70747900000000006044820152606401610347565b600180546000918261054683610c7d565b9091555060008181526020819052604090208181559091506001810161056c8682610ce5565b506002810161057b8582610ce5565b506003810180546001600160a01b0319163317905561059d6212750042610da5565b6004820181905560006005830181905560068301819055600783015560088201805460ff1916905560405183917f9cc3d9dd626042cdefb76484b91708c3207b637214b44f20111c893548d9c85f916105fa918991339190610db8565b60405180910390a25090505b92915050565b6106178160006107f0565b50565b6106178160016107f0565b60006060806000806000806000808960015481106106555760405162461bcd60e51b815260040161034790610c30565b60008b81526020819052604090208054600382015460048301546005840154600685015460078601546008870154600188018054909660028a01966001600160a01b0390911695909490939092909160ff9091169088906106b590610bfc565b80601f01602080910402602001604051908101604052809291908181526020018280546106e190610bfc565b801561072e5780601f106107035761010080835404028352916020019161072e565b820191906000526020600020905b81548152906001019060200180831161071157829003601f168201915b5050505050975086805461074190610bfc565b80601f016020809104026020016040519081016040528092919081815260200182805461076d90610bfc565b80156107ba5780601f1061078f576101008083540402835291602001916107ba565b820191906000526020600020905b81548152906001019060200180831161079d57829003601f168201915b505050505096509a509a509a509a509a509a509a509a509a5050509193959799909294969850565b6107ec82826107f0565b5050565b8160015481106108125760405162461bcd60e51b815260040161034790610c30565b60008381526020819052604090206004015483904211156108755760405162461bcd60e51b815260206004820152601760248201527f566f74696e6720706572696f642068617320656e6465640000000000000000006044820152606401610347565b600084815260208181526040808320338452600981019092529091205460ff16156108e25760405162461bcd60e51b815260206004820152601e60248201527f416c726561647920766f746564206f6e20746869732070726f706f73616c00006044820152606401610347565b3360009081526009820160205260408120805460ff191660011790556007820180549161090e83610c7d565b919050555083156109355760058101805490600061092b83610c7d565b919050555061094d565b60068101805490600061094783610c7d565b91905055505b6005810154600682015460408051338152871515602082015290810192909252606082015285907f77a255f45c79d26605c257d8dfc37f9a619f53963ddbed1e95aa0aab1c801cee9060800160405180910390a25050505050565b6000602082840312156109ba57600080fd5b5035919050565b6000815180845260005b818110156109e7576020818501810151868301820152016109cb565b506000602082860101526020601f19601f83011685010191505092915050565b60006101208b8352806020840152610a218184018c6109c1565b90508281036040840152610a35818b6109c1565b6001600160a01b039990991660608401525050608081019590955260a085019390935260c084019190915260e08301521515610100909101529392505050565b602081526000610a8860208301846109c1565b9392505050565b60008060408385031215610aa257600080fd5b8235915060208301356001600160a01b0381168114610ac057600080fd5b809150509250929050565b634e487b7160e01b600052604160045260246000fd5b600082601f830112610af257600080fd5b813567ffffffffffffffff80821115610b0d57610b0d610acb565b604051601f8301601f19908116603f01168101908282118183101715610b3557610b35610acb565b81604052838152866020858801011115610b4e57600080fd5b836020870160208301376000602085830101528094505050505092915050565b60008060408385031215610b8157600080fd5b823567ffffffffffffffff80821115610b9957600080fd5b610ba586838701610ae1565b93506020850135915080821115610bbb57600080fd5b50610bc885828601610ae1565b9150509250929050565b60008060408385031215610be557600080fd5b8235915060208301358015158114610ac057600080fd5b600181811c90821680610c1057607f821691505b60208210810361044157634e487b7160e01b600052602260045260246000fd5b60208082526017908201527f50726f706f73616c20646f6573206e6f74206578697374000000000000000000604082015260600190565b634e487b7160e01b600052601160045260246000fd5b600060018201610c8f57610c8f610c67565b5060010190565b601f821115610ce057600081815260208120601f850160051c81016020861015610cbd5750805b601f850160051c820191505b81811015610cdc57828155600101610cc9565b5050505b505050565b815167ffffffffffffffff811115610cff57610cff610acb565b610d1381610d0d8454610bfc565b84610c96565b602080601f831160018114610d485760008415610d305750858301515b600019600386901b1c1916600185901b178555610cdc565b600085815260208120601f198616915b82811015610d7757888601518255948401946001909101908401610d58565b5085821015610d955787850151600019600388901b60f8161c191681555b5050505050600190811b01905550565b8082018082111561060657610606610c67565b606081526000610dcb60608301866109c1565b6001600160a01b03949094166020830152506040015291905056fea26469706673582212200577535673c0f29cefb39c98479e5da057c06723135f879fa3b9d453e4eedcc664736f6c63430008130033",
  "linkReferences": {},
  "deployedLinkReferences": {}
}